{
  "_format": "hh-sol-artifact-1",
  "contractName": "Web3Mint",
  "sourceName": "contracts/Web3Mint.sol",
  "abi": [
    {
      "inputs": [],
      "stateMutability": "nonpayable",
      "type": "constructor"
    },
    {
      "anonymous": false,
      "inputs": [
        {
          "indexed": true,
          "internalType": "address",
          "name": "owner",
          "type": "address"
        },
        {
          "indexed": true,
          "internalType": "address",
          "name": "approved",
          "type": "address"
        },
        {
          "indexed": true,
          "internalType": "uint256",
          "name": "tokenId",
          "type": "uint256"
        }
      ],
      "name": "Approval",
      "type": "event"
    },
    {
      "anonymous": false,
      "inputs": [
        {
          "indexed": true,
          "internalType": "address",
          "name": "owner",
          "type": "address"
        },
        {
          "indexed": true,
          "internalType": "address",
          "name": "operator",
          "type": "address"
        },
        {
          "indexed": false,
          "internalType": "bool",
          "name": "approved",
          "type": "bool"
        }
      ],
      "name": "ApprovalForAll",
      "type": "event"
    },
    {
      "anonymous": false,
      "inputs": [
        {
          "indexed": false,
          "internalType": "address",
          "name": "owner",
          "type": "address"
        },
        {
          "indexed": false,
          "internalType": "uint256",
          "name": "tokenId",
          "type": "uint256"
        }
      ],
      "name": "MintIpfsNFT",
      "type": "event"
    },
    {
      "anonymous": false,
      "inputs": [
        {
          "indexed": true,
          "internalType": "address",
          "name": "from",
          "type": "address"
        },
        {
          "indexed": true,
          "internalType": "address",
          "name": "to",
          "type": "address"
        },
        {
          "indexed": true,
          "internalType": "uint256",
          "name": "tokenId",
          "type": "uint256"
        }
      ],
      "name": "Transfer",
      "type": "event"
    },
    {
      "inputs": [
        {
          "internalType": "address",
          "name": "to",
          "type": "address"
        },
        {
          "internalType": "uint256",
          "name": "tokenId",
          "type": "uint256"
        }
      ],
      "name": "approve",
      "outputs": [],
      "stateMutability": "nonpayable",
      "type": "function"
    },
    {
      "inputs": [
        {
          "internalType": "address",
          "name": "owner",
          "type": "address"
        }
      ],
      "name": "balanceOf",
      "outputs": [
        {
          "internalType": "uint256",
          "name": "",
          "type": "uint256"
        }
      ],
      "stateMutability": "view",
      "type": "function"
    },
    {
      "inputs": [
        {
          "internalType": "uint256",
          "name": "tokenId",
          "type": "uint256"
        }
      ],
      "name": "getApproved",
      "outputs": [
        {
          "internalType": "address",
          "name": "",
          "type": "address"
        }
      ],
      "stateMutability": "view",
      "type": "function"
    },
    {
      "inputs": [
        {
          "internalType": "address",
          "name": "owner",
          "type": "address"
        },
        {
          "internalType": "address",
          "name": "operator",
          "type": "address"
        }
      ],
      "name": "isApprovedForAll",
      "outputs": [
        {
          "internalType": "bool",
          "name": "",
          "type": "bool"
        }
      ],
      "stateMutability": "view",
      "type": "function"
    },
    {
      "inputs": [
        {
          "internalType": "string",
          "name": "name",
          "type": "string"
        },
        {
          "internalType": "string",
          "name": "imageURI",
          "type": "string"
        }
      ],
      "name": "mintIpfsNFT",
      "outputs": [],
      "stateMutability": "nonpayable",
      "type": "function"
    },
    {
      "inputs": [],
      "name": "name",
      "outputs": [
        {
          "internalType": "string",
          "name": "",
          "type": "string"
        }
      ],
      "stateMutability": "view",
      "type": "function"
    },
    {
      "inputs": [
        {
          "internalType": "uint256",
          "name": "tokenId",
          "type": "uint256"
        }
      ],
      "name": "ownerOf",
      "outputs": [
        {
          "internalType": "address",
          "name": "",
          "type": "address"
        }
      ],
      "stateMutability": "view",
      "type": "function"
    },
    {
      "inputs": [],
      "name": "readCurrentTokenId",
      "outputs": [
        {
          "internalType": "uint256",
          "name": "",
          "type": "uint256"
        }
      ],
      "stateMutability": "view",
      "type": "function"
    },
    {
      "inputs": [
        {
          "internalType": "address",
          "name": "from",
          "type": "address"
        },
        {
          "internalType": "address",
          "name": "to",
          "type": "address"
        },
        {
          "internalType": "uint256",
          "name": "tokenId",
          "type": "uint256"
        }
      ],
      "name": "safeTransferFrom",
      "outputs": [],
      "stateMutability": "nonpayable",
      "type": "function"
    },
    {
      "inputs": [
        {
          "internalType": "address",
          "name": "from",
          "type": "address"
        },
        {
          "internalType": "address",
          "name": "to",
          "type": "address"
        },
        {
          "internalType": "uint256",
          "name": "tokenId",
          "type": "uint256"
        },
        {
          "internalType": "bytes",
          "name": "data",
          "type": "bytes"
        }
      ],
      "name": "safeTransferFrom",
      "outputs": [],
      "stateMutability": "nonpayable",
      "type": "function"
    },
    {
      "inputs": [
        {
          "internalType": "address",
          "name": "operator",
          "type": "address"
        },
        {
          "internalType": "bool",
          "name": "approved",
          "type": "bool"
        }
      ],
      "name": "setApprovalForAll",
      "outputs": [],
      "stateMutability": "nonpayable",
      "type": "function"
    },
    {
      "inputs": [
        {
          "internalType": "bytes4",
          "name": "interfaceId",
          "type": "bytes4"
        }
      ],
      "name": "supportsInterface",
      "outputs": [
        {
          "internalType": "bool",
          "name": "",
          "type": "bool"
        }
      ],
      "stateMutability": "view",
      "type": "function"
    },
    {
      "inputs": [],
      "name": "symbol",
      "outputs": [
        {
          "internalType": "string",
          "name": "",
          "type": "string"
        }
      ],
      "stateMutability": "view",
      "type": "function"
    },
    {
      "inputs": [
        {
          "internalType": "uint256",
          "name": "_tokenId",
          "type": "uint256"
        }
      ],
      "name": "tokenURI",
      "outputs": [
        {
          "internalType": "string",
          "name": "",
          "type": "string"
        }
      ],
      "stateMutability": "view",
      "type": "function"
    },
    {
      "inputs": [
        {
          "internalType": "address",
          "name": "from",
          "type": "address"
        },
        {
          "internalType": "address",
          "name": "to",
          "type": "address"
        },
        {
          "internalType": "uint256",
          "name": "tokenId",
          "type": "uint256"
        }
      ],
      "name": "transferFrom",
      "outputs": [],
      "stateMutability": "nonpayable",
      "type": "function"
    }
  ],
  "bytecode": "0x60806040523480156200001157600080fd5b506040518060400160405280600881526020017f54616e79614e46540000000000000000000000000000000000000000000000008152506040518060400160405280600581526020017f54414e594100000000000000000000000000000000000000000000000000000081525081600090816200008f91906200043b565b508060019081620000a191906200043b565b505050620000ef6040518060400160405280601881526020017f54686973206973206d79204e465420636f6e74726163742e0000000000000000815250620000f560201b62000b331760201c565b620005d5565b62000195816040516024016200010c9190620005b1565b6040516020818303038152906040527f41304fac000000000000000000000000000000000000000000000000000000007bffffffffffffffffffffffffffffffffffffffffffffffffffffffff19166020820180517bffffffffffffffffffffffffffffffffffffffffffffffffffffffff83818316178352505050506200019860201b60201c565b50565b60008151905060006a636f6e736f6c652e6c6f679050602083016000808483855afa5050505050565b600081519050919050565b7f4e487b7100000000000000000000000000000000000000000000000000000000600052604160045260246000fd5b7f4e487b7100000000000000000000000000000000000000000000000000000000600052602260045260246000fd5b600060028204905060018216806200024357607f821691505b602082108103620002595762000258620001fb565b5b50919050565b60008190508160005260206000209050919050565b60006020601f8301049050919050565b600082821b905092915050565b600060088302620002c37fffffffffffffffffffffffffffffffffffffffffffffffffffffffffffffffff8262000284565b620002cf868362000284565b95508019841693508086168417925050509392505050565b6000819050919050565b6000819050919050565b60006200031c620003166200031084620002e7565b620002f1565b620002e7565b9050919050565b6000819050919050565b6200033883620002fb565b62000350620003478262000323565b84845462000291565b825550505050565b600090565b6200036762000358565b620003748184846200032d565b505050565b5b818110156200039c57620003906000826200035d565b6001810190506200037a565b5050565b601f821115620003eb57620003b5816200025f565b620003c08462000274565b81016020851015620003d0578190505b620003e8620003df8562000274565b83018262000379565b50505b505050565b600082821c905092915050565b60006200041060001984600802620003f0565b1980831691505092915050565b60006200042b8383620003fd565b9150826002028217905092915050565b6200044682620001c1565b67ffffffffffffffff811115620004625762000461620001cc565b5b6200046e82546200022a565b6200047b828285620003a0565b600060209050601f831160018114620004b357600084156200049e578287015190505b620004aa85826200041d565b8655506200051a565b601f198416620004c3866200025f565b60005b82811015620004ed57848901518255600182019150602085019450602081019050620004c6565b868310156200050d578489015162000509601f891682620003fd565b8355505b6001600288020188555050505b505050505050565b600082825260208201905092915050565b60005b838110156200055357808201518184015260208101905062000536565b60008484015250505050565b6000601f19601f8301169050919050565b60006200057d82620001c1565b62000589818562000522565b93506200059b81856020860162000533565b620005a6816200055f565b840191505092915050565b60006020820190508181036000830152620005cd818462000570565b905092915050565b61305f80620005e56000396000f3fe608060405234801561001057600080fd5b50600436106100f55760003560e01c806370a0823111610097578063c87b56dd11610066578063c87b56dd14610282578063e985e9c5146102b2578063eb00195d146102e2578063eff8f748146102fe576100f5565b806370a08231146101fc57806395d89b411461022c578063a22cb4651461024a578063b88d4fde14610266576100f5565b8063095ea7b3116100d3578063095ea7b31461017857806323b872dd1461019457806342842e0e146101b05780636352211e146101cc576100f5565b806301ffc9a7146100fa57806306fdde031461012a578063081812fc14610148575b600080fd5b610114600480360381019061010f9190611ac6565b61031c565b6040516101219190611b0e565b60405180910390f35b6101326103fe565b60405161013f9190611bb9565b60405180910390f35b610162600480360381019061015d9190611c11565b610490565b60405161016f9190611c7f565b60405180910390f35b610192600480360381019061018d9190611cc6565b6104d6565b005b6101ae60048036038101906101a99190611d06565b6105ed565b005b6101ca60048036038101906101c59190611d06565b61064d565b005b6101e660048036038101906101e19190611c11565b61066d565b6040516101f39190611c7f565b60405180910390f35b61021660048036038101906102119190611d59565b61071e565b6040516102239190611d95565b60405180910390f35b6102346107d5565b6040516102419190611bb9565b60405180910390f35b610264600480360381019061025f9190611ddc565b610867565b005b610280600480360381019061027b9190611f51565b61087d565b005b61029c60048036038101906102979190611c11565b6108df565b6040516102a99190611bb9565b60405180910390f35b6102cc60048036038101906102c79190611fd4565b61098f565b6040516102d99190611b0e565b60405180910390f35b6102fc60048036038101906102f791906120b5565b610a23565b005b610306610b22565b6040516103139190611d95565b60405180910390f35b60007f80ac58cd000000000000000000000000000000000000000000000000000000007bffffffffffffffffffffffffffffffffffffffffffffffffffffffff1916827bffffffffffffffffffffffffffffffffffffffffffffffffffffffff191614806103e757507f5b5e139f000000000000000000000000000000000000000000000000000000007bffffffffffffffffffffffffffffffffffffffffffffffffffffffff1916827bffffffffffffffffffffffffffffffffffffffffffffffffffffffff1916145b806103f757506103f682610bcc565b5b9050919050565b60606000805461040d9061215c565b80601f01602080910402602001604051908101604052809291908181526020018280546104399061215c565b80156104865780601f1061045b57610100808354040283529160200191610486565b820191906000526020600020905b81548152906001019060200180831161046957829003601f168201915b5050505050905090565b600061049b82610c36565b6004600083815260200190815260200160002060009054906101000a900473ffffffffffffffffffffffffffffffffffffffff169050919050565b60006104e18261066d565b90508073ffffffffffffffffffffffffffffffffffffffff168373ffffffffffffffffffffffffffffffffffffffff1603610551576040517f08c379a0000000000000000000000000000000000000000000000000000000008152600401610548906121ff565b60405180910390fd5b8073ffffffffffffffffffffffffffffffffffffffff16610570610c81565b73ffffffffffffffffffffffffffffffffffffffff16148061059f575061059e81610599610c81565b61098f565b5b6105de576040517f08c379a00000000000000000000000000000000000000000000000000000000081526004016105d590612291565b60405180910390fd5b6105e88383610c89565b505050565b6105fe6105f8610c81565b82610d42565b61063d576040517f08c379a000000000000000000000000000000000000000000000000000000000815260040161063490612323565b60405180910390fd5b610648838383610dd7565b505050565b6106688383836040518060200160405280600081525061087d565b505050565b6000806002600084815260200190815260200160002060009054906101000a900473ffffffffffffffffffffffffffffffffffffffff169050600073ffffffffffffffffffffffffffffffffffffffff168173ffffffffffffffffffffffffffffffffffffffff1603610715576040517f08c379a000000000000000000000000000000000000000000000000000000000815260040161070c9061238f565b60405180910390fd5b80915050919050565b60008073ffffffffffffffffffffffffffffffffffffffff168273ffffffffffffffffffffffffffffffffffffffff160361078e576040517f08c379a000000000000000000000000000000000000000000000000000000000815260040161078590612421565b60405180910390fd5b600360008373ffffffffffffffffffffffffffffffffffffffff1673ffffffffffffffffffffffffffffffffffffffff168152602001908152602001600020549050919050565b6060600180546107e49061215c565b80601f01602080910402602001604051908101604052809291908181526020018280546108109061215c565b801561085d5780601f106108325761010080835404028352916020019161085d565b820191906000526020600020905b81548152906001019060200180831161084057829003601f168201915b5050505050905090565b610879610872610c81565b838361103d565b5050565b61088e610888610c81565b83610d42565b6108cd576040517f08c379a00000000000000000000000000000000000000000000000000000000081526004016108c490612323565b60405180910390fd5b6108d9848484846111a9565b50505050565b6060600061095f600784815481106108fa576108f9612441565b5b906000526020600020906002020160000161091485611205565b6007868154811061092857610927612441565b5b906000526020600020906002020160010160405160200161094b9392919061269a565b604051602081830303815290604052611365565b90506000816040516020016109749190612743565b60405160208183030381529060405290508092505050919050565b6000600560008473ffffffffffffffffffffffffffffffffffffffff1673ffffffffffffffffffffffffffffffffffffffff16815260200190815260200160002060008373ffffffffffffffffffffffffffffffffffffffff1673ffffffffffffffffffffffffffffffffffffffff16815260200190815260200160002060009054906101000a900460ff16905092915050565b6000610a2f60086114fc565b90506032811115610a3f57600080fd5b610a49338261150a565b600760405180604001604052808581526020018481525090806001815401808255809150506001900390600052602060002090600202016000909190919091506000820151816000019081610a9e91906128fc565b506020820151816001019081610ab491906128fc565b5050507fb73a8e2dd58c988e1fde47b3ed9d447cc41dec9cdcf768685fee897dcbc15c8f3382604051610ae89291906129ce565b60405180910390a1610b13604051806060016040528060258152602001612fc5602591398233611528565b610b1d60086115c7565b505050565b6000610b2e60086114fc565b905090565b610bc981604051602401610b479190611bb9565b6040516020818303038152906040527f41304fac000000000000000000000000000000000000000000000000000000007bffffffffffffffffffffffffffffffffffffffffffffffffffffffff19166020820180517bffffffffffffffffffffffffffffffffffffffffffffffffffffffff83818316178352505050506115dd565b50565b60007f01ffc9a7000000000000000000000000000000000000000000000000000000007bffffffffffffffffffffffffffffffffffffffffffffffffffffffff1916827bffffffffffffffffffffffffffffffffffffffffffffffffffffffff1916149050919050565b610c3f81611606565b610c7e576040517f08c379a0000000000000000000000000000000000000000000000000000000008152600401610c759061238f565b60405180910390fd5b50565b600033905090565b816004600083815260200190815260200160002060006101000a81548173ffffffffffffffffffffffffffffffffffffffff021916908373ffffffffffffffffffffffffffffffffffffffff160217905550808273ffffffffffffffffffffffffffffffffffffffff16610cfc8361066d565b73ffffffffffffffffffffffffffffffffffffffff167f8c5be1e5ebec7d5bd14f71427d1e84f3dd0314c0f7b2291e5b200ac8c7c3b92560405160405180910390a45050565b600080610d4e8361066d565b90508073ffffffffffffffffffffffffffffffffffffffff168473ffffffffffffffffffffffffffffffffffffffff161480610d905750610d8f818561098f565b5b80610dce57508373ffffffffffffffffffffffffffffffffffffffff16610db684610490565b73ffffffffffffffffffffffffffffffffffffffff16145b91505092915050565b8273ffffffffffffffffffffffffffffffffffffffff16610df78261066d565b73ffffffffffffffffffffffffffffffffffffffff1614610e4d576040517f08c379a0000000000000000000000000000000000000000000000000000000008152600401610e4490612a69565b60405180910390fd5b600073ffffffffffffffffffffffffffffffffffffffff168273ffffffffffffffffffffffffffffffffffffffff1603610ebc576040517f08c379a0000000000000000000000000000000000000000000000000000000008152600401610eb390612afb565b60405180910390fd5b610ec7838383611672565b610ed2600082610c89565b6001600360008573ffffffffffffffffffffffffffffffffffffffff1673ffffffffffffffffffffffffffffffffffffffff1681526020019081526020016000206000828254610f229190612b4a565b925050819055506001600360008473ffffffffffffffffffffffffffffffffffffffff1673ffffffffffffffffffffffffffffffffffffffff1681526020019081526020016000206000828254610f799190612b7e565b92505081905550816002600083815260200190815260200160002060006101000a81548173ffffffffffffffffffffffffffffffffffffffff021916908373ffffffffffffffffffffffffffffffffffffffff160217905550808273ffffffffffffffffffffffffffffffffffffffff168473ffffffffffffffffffffffffffffffffffffffff167fddf252ad1be2c89b69c2b068fc378daa952ba7f163c4a11628f55a4df523b3ef60405160405180910390a4611038838383611677565b505050565b8173ffffffffffffffffffffffffffffffffffffffff168373ffffffffffffffffffffffffffffffffffffffff16036110ab576040517f08c379a00000000000000000000000000000000000000000000000000000000081526004016110a290612bfe565b60405180910390fd5b80600560008573ffffffffffffffffffffffffffffffffffffffff1673ffffffffffffffffffffffffffffffffffffffff16815260200190815260200160002060008473ffffffffffffffffffffffffffffffffffffffff1673ffffffffffffffffffffffffffffffffffffffff16815260200190815260200160002060006101000a81548160ff0219169083151502179055508173ffffffffffffffffffffffffffffffffffffffff168373ffffffffffffffffffffffffffffffffffffffff167f17307eab39ab6107e8899845ad3d59bd9653f200f220920489ca2b5937696c318360405161119c9190611b0e565b60405180910390a3505050565b6111b4848484610dd7565b6111c08484848461167c565b6111ff576040517f08c379a00000000000000000000000000000000000000000000000000000000081526004016111f690612c90565b60405180910390fd5b50505050565b60606000820361124c576040518060400160405280600181526020017f30000000000000000000000000000000000000000000000000000000000000008152509050611360565b600082905060005b6000821461127e57808061126790612cb0565b915050600a826112779190612d27565b9150611254565b60008167ffffffffffffffff81111561129a57611299611e26565b5b6040519080825280601f01601f1916602001820160405280156112cc5781602001600182028036833780820191505090505b5090505b60008514611359576001826112e59190612b4a565b9150600a856112f49190612d58565b60306113009190612b7e565b60f81b81838151811061131657611315612441565b5b60200101907effffffffffffffffffffffffffffffffffffffffffffffffffffffffffffff1916908160001a905350600a856113529190612d27565b94506112d0565b8093505050505b919050565b60606000825190506000810361138d57604051806020016040528060008152509150506114f7565b6000600360028361139e9190612b7e565b6113a89190612d27565b60046113b49190612d89565b905060006020826113c59190612b7e565b67ffffffffffffffff8111156113de576113dd611e26565b5b6040519080825280601f01601f1916602001820160405280156114105781602001600182028036833780820191505090505b5090506000604051806060016040528060408152602001612fea604091399050600181016020830160005b868110156114b45760038101905062ffffff818a015116603f8160121c168401518060081b905060ff603f83600c1c1686015116810190508060081b905060ff603f8360061c1686015116810190508060081b905060ff603f831686015116810190508060e01b9050808452600484019350505061143b565b5060038606600181146114ce57600281146114de576114e9565b613d3d60f01b60028303526114e9565b603d60f81b60018303525b508484525050819450505050505b919050565b600081600001549050919050565b611524828260405180602001604052806000815250611803565b5050565b6115c283838360405160240161154093929190612dcb565b6040516020818303038152906040527f1c7ec448000000000000000000000000000000000000000000000000000000007bffffffffffffffffffffffffffffffffffffffffffffffffffffffff19166020820180517bffffffffffffffffffffffffffffffffffffffffffffffffffffffff83818316178352505050506115dd565b505050565b6001816000016000828254019250508190555050565b60008151905060006a636f6e736f6c652e6c6f679050602083016000808483855afa5050505050565b60008073ffffffffffffffffffffffffffffffffffffffff166002600084815260200190815260200160002060009054906101000a900473ffffffffffffffffffffffffffffffffffffffff1673ffffffffffffffffffffffffffffffffffffffff1614159050919050565b505050565b505050565b600061169d8473ffffffffffffffffffffffffffffffffffffffff1661185e565b156117f6578373ffffffffffffffffffffffffffffffffffffffff1663150b7a026116c6610c81565b8786866040518563ffffffff1660e01b81526004016116e89493929190612e5e565b6020604051808303816000875af192505050801561172457506040513d601f19601f820116820180604052508101906117219190612ebf565b60015b6117a6573d8060008114611754576040519150601f19603f3d011682016040523d82523d6000602084013e611759565b606091505b50600081510361179e576040517f08c379a000000000000000000000000000000000000000000000000000000000815260040161179590612c90565b60405180910390fd5b805181602001fd5b63150b7a0260e01b7bffffffffffffffffffffffffffffffffffffffffffffffffffffffff1916817bffffffffffffffffffffffffffffffffffffffffffffffffffffffff1916149150506117fb565b600190505b949350505050565b61180d8383611881565b61181a600084848461167c565b611859576040517f08c379a000000000000000000000000000000000000000000000000000000000815260040161185090612c90565b60405180910390fd5b505050565b6000808273ffffffffffffffffffffffffffffffffffffffff163b119050919050565b600073ffffffffffffffffffffffffffffffffffffffff168273ffffffffffffffffffffffffffffffffffffffff16036118f0576040517f08c379a00000000000000000000000000000000000000000000000000000000081526004016118e790612f38565b60405180910390fd5b6118f981611606565b15611939576040517f08c379a000000000000000000000000000000000000000000000000000000000815260040161193090612fa4565b60405180910390fd5b61194560008383611672565b6001600360008473ffffffffffffffffffffffffffffffffffffffff1673ffffffffffffffffffffffffffffffffffffffff16815260200190815260200160002060008282546119959190612b7e565b92505081905550816002600083815260200190815260200160002060006101000a81548173ffffffffffffffffffffffffffffffffffffffff021916908373ffffffffffffffffffffffffffffffffffffffff160217905550808273ffffffffffffffffffffffffffffffffffffffff16600073ffffffffffffffffffffffffffffffffffffffff167fddf252ad1be2c89b69c2b068fc378daa952ba7f163c4a11628f55a4df523b3ef60405160405180910390a4611a5660008383611677565b5050565b6000604051905090565b600080fd5b600080fd5b60007fffffffff0000000000000000000000000000000000000000000000000000000082169050919050565b611aa381611a6e565b8114611aae57600080fd5b50565b600081359050611ac081611a9a565b92915050565b600060208284031215611adc57611adb611a64565b5b6000611aea84828501611ab1565b91505092915050565b60008115159050919050565b611b0881611af3565b82525050565b6000602082019050611b236000830184611aff565b92915050565b600081519050919050565b600082825260208201905092915050565b60005b83811015611b63578082015181840152602081019050611b48565b60008484015250505050565b6000601f19601f8301169050919050565b6000611b8b82611b29565b611b958185611b34565b9350611ba5818560208601611b45565b611bae81611b6f565b840191505092915050565b60006020820190508181036000830152611bd38184611b80565b905092915050565b6000819050919050565b611bee81611bdb565b8114611bf957600080fd5b50565b600081359050611c0b81611be5565b92915050565b600060208284031215611c2757611c26611a64565b5b6000611c3584828501611bfc565b91505092915050565b600073ffffffffffffffffffffffffffffffffffffffff82169050919050565b6000611c6982611c3e565b9050919050565b611c7981611c5e565b82525050565b6000602082019050611c946000830184611c70565b92915050565b611ca381611c5e565b8114611cae57600080fd5b50565b600081359050611cc081611c9a565b92915050565b60008060408385031215611cdd57611cdc611a64565b5b6000611ceb85828601611cb1565b9250506020611cfc85828601611bfc565b9150509250929050565b600080600060608486031215611d1f57611d1e611a64565b5b6000611d2d86828701611cb1565b9350506020611d3e86828701611cb1565b9250506040611d4f86828701611bfc565b9150509250925092565b600060208284031215611d6f57611d6e611a64565b5b6000611d7d84828501611cb1565b91505092915050565b611d8f81611bdb565b82525050565b6000602082019050611daa6000830184611d86565b92915050565b611db981611af3565b8114611dc457600080fd5b50565b600081359050611dd681611db0565b92915050565b60008060408385031215611df357611df2611a64565b5b6000611e0185828601611cb1565b9250506020611e1285828601611dc7565b9150509250929050565b600080fd5b600080fd5b7f4e487b7100000000000000000000000000000000000000000000000000000000600052604160045260246000fd5b611e5e82611b6f565b810181811067ffffffffffffffff82111715611e7d57611e7c611e26565b5b80604052505050565b6000611e90611a5a565b9050611e9c8282611e55565b919050565b600067ffffffffffffffff821115611ebc57611ebb611e26565b5b611ec582611b6f565b9050602081019050919050565b82818337600083830152505050565b6000611ef4611eef84611ea1565b611e86565b905082815260208101848484011115611f1057611f0f611e21565b5b611f1b848285611ed2565b509392505050565b600082601f830112611f3857611f37611e1c565b5b8135611f48848260208601611ee1565b91505092915050565b60008060008060808587031215611f6b57611f6a611a64565b5b6000611f7987828801611cb1565b9450506020611f8a87828801611cb1565b9350506040611f9b87828801611bfc565b925050606085013567ffffffffffffffff811115611fbc57611fbb611a69565b5b611fc887828801611f23565b91505092959194509250565b60008060408385031215611feb57611fea611a64565b5b6000611ff985828601611cb1565b925050602061200a85828601611cb1565b9150509250929050565b600067ffffffffffffffff82111561202f5761202e611e26565b5b61203882611b6f565b9050602081019050919050565b600061205861205384612014565b611e86565b90508281526020810184848401111561207457612073611e21565b5b61207f848285611ed2565b509392505050565b600082601f83011261209c5761209b611e1c565b5b81356120ac848260208601612045565b91505092915050565b600080604083850312156120cc576120cb611a64565b5b600083013567ffffffffffffffff8111156120ea576120e9611a69565b5b6120f685828601612087565b925050602083013567ffffffffffffffff81111561211757612116611a69565b5b61212385828601612087565b9150509250929050565b7f4e487b7100000000000000000000000000000000000000000000000000000000600052602260045260246000fd5b6000600282049050600182168061217457607f821691505b6020821081036121875761218661212d565b5b50919050565b7f4552433732313a20617070726f76616c20746f2063757272656e74206f776e6560008201527f7200000000000000000000000000000000000000000000000000000000000000602082015250565b60006121e9602183611b34565b91506121f48261218d565b604082019050919050565b60006020820190508181036000830152612218816121dc565b9050919050565b7f4552433732313a20617070726f76652063616c6c6572206973206e6f7420746f60008201527f6b656e206f776e6572206e6f7220617070726f76656420666f7220616c6c0000602082015250565b600061227b603e83611b34565b91506122868261221f565b604082019050919050565b600060208201905081810360008301526122aa8161226e565b9050919050565b7f4552433732313a2063616c6c6572206973206e6f7420746f6b656e206f776e6560008201527f72206e6f7220617070726f766564000000000000000000000000000000000000602082015250565b600061230d602e83611b34565b9150612318826122b1565b604082019050919050565b6000602082019050818103600083015261233c81612300565b9050919050565b7f4552433732313a20696e76616c696420746f6b656e2049440000000000000000600082015250565b6000612379601883611b34565b915061238482612343565b602082019050919050565b600060208201905081810360008301526123a88161236c565b9050919050565b7f4552433732313a2061646472657373207a65726f206973206e6f74206120766160008201527f6c6964206f776e65720000000000000000000000000000000000000000000000602082015250565b600061240b602983611b34565b9150612416826123af565b604082019050919050565b6000602082019050818103600083015261243a816123fe565b9050919050565b7f4e487b7100000000000000000000000000000000000000000000000000000000600052603260045260246000fd5b600081905092915050565b7f7b226e616d65223a202200000000000000000000000000000000000000000000600082015250565b60006124b1600a83612470565b91506124bc8261247b565b600a82019050919050565b60008190508160005260206000209050919050565b600081546124e98161215c565b6124f38186612470565b9450600182166000811461250e576001811461252357612556565b60ff1983168652811515820286019350612556565b61252c856124c7565b60005b8381101561254e5781548189015260018201915060208101905061252f565b838801955050505b50505092915050565b7f202d2d204e465420233a20000000000000000000000000000000000000000000600082015250565b6000612595600b83612470565b91506125a08261255f565b600b82019050919050565b60006125b682611b29565b6125c08185612470565b93506125d0818560208601611b45565b80840191505092915050565b7f222c20226465736372697074696f6e223a2022416e2065706963204e4654222c60008201527f2022696d616765223a2022697066733a2f2f0000000000000000000000000000602082015250565b6000612638603283612470565b9150612643826125dc565b603282019050919050565b7f227d000000000000000000000000000000000000000000000000000000000000600082015250565b6000612684600283612470565b915061268f8261264e565b600282019050919050565b60006126a5826124a4565b91506126b182866124dc565b91506126bc82612588565b91506126c882856125ab565b91506126d38261262b565b91506126df82846124dc565b91506126ea82612677565b9150819050949350505050565b7f646174613a6170706c69636174696f6e2f6a736f6e3b6261736536342c000000600082015250565b600061272d601d83612470565b9150612738826126f7565b601d82019050919050565b600061274e82612720565b915061275a82846125ab565b915081905092915050565b60006020601f8301049050919050565b600082821b905092915050565b6000600883026127b27fffffffffffffffffffffffffffffffffffffffffffffffffffffffffffffffff82612775565b6127bc8683612775565b95508019841693508086168417925050509392505050565b6000819050919050565b60006127f96127f46127ef84611bdb565b6127d4565b611bdb565b9050919050565b6000819050919050565b612813836127de565b61282761281f82612800565b848454612782565b825550505050565b600090565b61283c61282f565b61284781848461280a565b505050565b5b8181101561286b57612860600082612834565b60018101905061284d565b5050565b601f8211156128b057612881816124c7565b61288a84612765565b81016020851015612899578190505b6128ad6128a585612765565b83018261284c565b50505b505050565b600082821c905092915050565b60006128d3600019846008026128b5565b1980831691505092915050565b60006128ec83836128c2565b9150826002028217905092915050565b61290582611b29565b67ffffffffffffffff81111561291e5761291d611e26565b5b612928825461215c565b61293382828561286f565b600060209050601f8311600181146129665760008415612954578287015190505b61295e85826128e0565b8655506129c6565b601f198416612974866124c7565b60005b8281101561299c57848901518255600182019150602085019450602081019050612977565b868310156129b957848901516129b5601f8916826128c2565b8355505b6001600288020188555050505b505050505050565b60006040820190506129e36000830185611c70565b6129f06020830184611d86565b9392505050565b7f4552433732313a207472616e736665722066726f6d20696e636f72726563742060008201527f6f776e6572000000000000000000000000000000000000000000000000000000602082015250565b6000612a53602583611b34565b9150612a5e826129f7565b604082019050919050565b60006020820190508181036000830152612a8281612a46565b9050919050565b7f4552433732313a207472616e7366657220746f20746865207a65726f2061646460008201527f7265737300000000000000000000000000000000000000000000000000000000602082015250565b6000612ae5602483611b34565b9150612af082612a89565b604082019050919050565b60006020820190508181036000830152612b1481612ad8565b9050919050565b7f4e487b7100000000000000000000000000000000000000000000000000000000600052601160045260246000fd5b6000612b5582611bdb565b9150612b6083611bdb565b9250828203905081811115612b7857612b77612b1b565b5b92915050565b6000612b8982611bdb565b9150612b9483611bdb565b9250828201905080821115612bac57612bab612b1b565b5b92915050565b7f4552433732313a20617070726f766520746f2063616c6c657200000000000000600082015250565b6000612be8601983611b34565b9150612bf382612bb2565b602082019050919050565b60006020820190508181036000830152612c1781612bdb565b9050919050565b7f4552433732313a207472616e7366657220746f206e6f6e20455243373231526560008201527f63656976657220696d706c656d656e7465720000000000000000000000000000602082015250565b6000612c7a603283611b34565b9150612c8582612c1e565b604082019050919050565b60006020820190508181036000830152612ca981612c6d565b9050919050565b6000612cbb82611bdb565b91507fffffffffffffffffffffffffffffffffffffffffffffffffffffffffffffffff8203612ced57612cec612b1b565b5b600182019050919050565b7f4e487b7100000000000000000000000000000000000000000000000000000000600052601260045260246000fd5b6000612d3282611bdb565b9150612d3d83611bdb565b925082612d4d57612d4c612cf8565b5b828204905092915050565b6000612d6382611bdb565b9150612d6e83611bdb565b925082612d7e57612d7d612cf8565b5b828206905092915050565b6000612d9482611bdb565b9150612d9f83611bdb565b9250828202612dad81611bdb565b91508282048414831517612dc457612dc3612b1b565b5b5092915050565b60006060820190508181036000830152612de58186611b80565b9050612df46020830185611d86565b612e016040830184611c70565b949350505050565b600081519050919050565b600082825260208201905092915050565b6000612e3082612e09565b612e3a8185612e14565b9350612e4a818560208601611b45565b612e5381611b6f565b840191505092915050565b6000608082019050612e736000830187611c70565b612e806020830186611c70565b612e8d6040830185611d86565b8181036060830152612e9f8184612e25565b905095945050505050565b600081519050612eb981611a9a565b92915050565b600060208284031215612ed557612ed4611a64565b5b6000612ee384828501612eaa565b91505092915050565b7f4552433732313a206d696e7420746f20746865207a65726f2061646472657373600082015250565b6000612f22602083611b34565b9150612f2d82612eec565b602082019050919050565b60006020820190508181036000830152612f5181612f15565b9050919050565b7f4552433732313a20746f6b656e20616c7265616479206d696e74656400000000600082015250565b6000612f8e601c83611b34565b9150612f9982612f58565b602082019050919050565b60006020820190508181036000830152612fbd81612f81565b905091905056fe416e204e465420772f20494420257320686173206265656e206d696e74656420746f2025734142434445464748494a4b4c4d4e4f505152535455565758595a6162636465666768696a6b6c6d6e6f707172737475767778797a303132333435363738392b2fa2646970667358221220f54bb35a286b82071b3f6c8a87808cf565e0ec134b4e6e904e941327d1e1314364736f6c63430008110033",
  "linkReferences": {},
  "deployedLinkReferences": {}
}